{
  "_format": "hh-sol-artifact-1",
  "contractName": "SupplyChain",
  "sourceName": "contracts/SupplyChain.sol",
  "abi": [
    {
      "anonymous": false,
      "inputs": [
        {
          "indexed": false,
          "internalType": "uint256",
          "name": "id",
          "type": "uint256"
        },
        {
          "indexed": false,
          "internalType": "string",
          "name": "name",
          "type": "string"
        },
        {
          "indexed": false,
          "internalType": "uint256",
          "name": "price",
          "type": "uint256"
        },
        {
          "indexed": false,
          "internalType": "address",
          "name": "owner",
          "type": "address"
        }
      ],
      "name": "ProductCreated",
      "type": "event"
    },
    {
      "anonymous": false,
      "inputs": [
        {
          "indexed": false,
          "internalType": "uint256",
          "name": "id",
          "type": "uint256"
        }
      ],
      "name": "ProductShipped",
      "type": "event"
    },
    {
      "inputs": [
        {
          "internalType": "string",
          "name": "_name",
          "type": "string"
        },
        {
          "internalType": "uint256",
          "name": "_price",
          "type": "uint256"
        }
      ],
      "name": "createProduct",
      "outputs": [],
      "stateMutability": "nonpayable",
      "type": "function"
    },
    {
      "inputs": [
        {
          "internalType": "uint256",
          "name": "_id",
          "type": "uint256"
        },
        {
          "internalType": "address",
          "name": "_newOwner",
          "type": "address"
        }
      ],
      "name": "deliverProduct",
      "outputs": [],
      "stateMutability": "nonpayable",
      "type": "function"
    },
    {
      "inputs": [],
      "name": "productCount",
      "outputs": [
        {
          "internalType": "uint256",
          "name": "",
          "type": "uint256"
        }
      ],
      "stateMutability": "view",
      "type": "function"
    },
    {
      "inputs": [
        {
          "internalType": "uint256",
          "name": "",
          "type": "uint256"
        }
      ],
      "name": "products",
      "outputs": [
        {
          "internalType": "uint256",
          "name": "id",
          "type": "uint256"
        },
        {
          "internalType": "string",
          "name": "name",
          "type": "string"
        },
        {
          "internalType": "address",
          "name": "owner",
          "type": "address"
        },
        {
          "internalType": "enum SupplyChain.ProductState",
          "name": "state",
          "type": "uint8"
        }
      ],
      "stateMutability": "view",
      "type": "function"
    },
    {
      "inputs": [
        {
          "internalType": "uint256",
          "name": "_id",
          "type": "uint256"
        }
      ],
      "name": "shipProduct",
      "outputs": [],
      "stateMutability": "nonpayable",
      "type": "function"
    }
  ],
  "bytecode": "0x60806040526000805534801561001457600080fd5b50610e72806100246000396000f3fe608060405234801561001057600080fd5b50600436106100575760003560e01c806302ec06be1461005c5780632927d1d9146100785780637acc0b2014610094578063b3e02002146100c7578063e0f6ef87146100e3575b600080fd5b6100766004803603810190610071919061070c565b610101565b005b610092600480360381019061008d919061078b565b610252565b005b6100ae60048036038101906100a9919061078b565b61036e565b6040516100be94939291906108fe565b60405180910390f35b6100e160048036038101906100dc9190610976565b610453565b005b6100eb6105ac565b6040516100f891906109b6565b60405180910390f35b60008081548092919061011390610a00565b9190505550604051806080016040528060005481526020018281526020013373ffffffffffffffffffffffffffffffffffffffff1681526020016000600281111561016157610160610887565b5b81525060016000805481526020019081526020016000206000820151816000015560208201518160010190816101979190610c54565b5060408201518160020160006101000a81548173ffffffffffffffffffffffffffffffffffffffff021916908373ffffffffffffffffffffffffffffffffffffffff16021790555060608201518160020160146101000a81548160ff0219169083600281111561020a57610209610887565b5b02179055509050507faf6ffb6277511513e7d579327cc1fc57f0266df2fb11a60b13487b8c9cd2c388600054823360405161024793929190610d26565b60405180910390a150565b3373ffffffffffffffffffffffffffffffffffffffff166001600083815260200190815260200160002060020160009054906101000a900473ffffffffffffffffffffffffffffffffffffffff1673ffffffffffffffffffffffffffffffffffffffff16146102f6576040517f08c379a00000000000000000000000000000000000000000000000000000000081526004016102ed90610db0565b60405180910390fd5b600180600083815260200190815260200160002060020160146101000a81548160ff0219169083600281111561032f5761032e610887565b5b02179055507ff91b0b39fbb56d78224050bb7e56777ee7aca5ed18ada91cc9c21677db7f9abe8160405161036391906109b6565b60405180910390a150565b600160205280600052604060002060009150905080600001549080600101805461039790610a77565b80601f01602080910402602001604051908101604052809291908181526020018280546103c390610a77565b80156104105780601f106103e557610100808354040283529160200191610410565b820191906000526020600020905b8154815290600101906020018083116103f357829003601f168201915b5050505050908060020160009054906101000a900473ffffffffffffffffffffffffffffffffffffffff16908060020160149054906101000a900460ff16905084565b6001600281111561046757610466610887565b5b6001600084815260200190815260200160002060020160149054906101000a900460ff16600281111561049d5761049c610887565b5b146104dd576040517f08c379a00000000000000000000000000000000000000000000000000000000081526004016104d490610e1c565b60405180910390fd5b60026001600084815260200190815260200160002060020160146101000a81548160ff0219169083600281111561051757610516610887565b5b0217905550806001600084815260200190815260200160002060020160006101000a81548173ffffffffffffffffffffffffffffffffffffffff021916908373ffffffffffffffffffffffffffffffffffffffff1602179055507f676db0e373ff1071d39d7e4b8f731263eacae499c16b138d9fb88c272d2fd232826040516105a091906109b6565b60405180910390a15050565b60005481565b6000604051905090565b600080fd5b600080fd5b600080fd5b600080fd5b6000601f19601f8301169050919050565b7f4e487b7100000000000000000000000000000000000000000000000000000000600052604160045260246000fd5b610619826105d0565b810181811067ffffffffffffffff82111715610638576106376105e1565b5b80604052505050565b600061064b6105b2565b90506106578282610610565b919050565b600067ffffffffffffffff821115610677576106766105e1565b5b610680826105d0565b9050602081019050919050565b82818337600083830152505050565b60006106af6106aa8461065c565b610641565b9050828152602081018484840111156106cb576106ca6105cb565b5b6106d684828561068d565b509392505050565b600082601f8301126106f3576106f26105c6565b5b813561070384826020860161069c565b91505092915050565b600060208284031215610722576107216105bc565b5b600082013567ffffffffffffffff8111156107405761073f6105c1565b5b61074c848285016106de565b91505092915050565b6000819050919050565b61076881610755565b811461077357600080fd5b50565b6000813590506107858161075f565b92915050565b6000602082840312156107a1576107a06105bc565b5b60006107af84828501610776565b91505092915050565b6107c181610755565b82525050565b600081519050919050565b600082825260208201905092915050565b60005b838110156108015780820151818401526020810190506107e6565b60008484015250505050565b6000610818826107c7565b61082281856107d2565b93506108328185602086016107e3565b61083b816105d0565b840191505092915050565b600073ffffffffffffffffffffffffffffffffffffffff82169050919050565b600061087182610846565b9050919050565b61088181610866565b82525050565b7f4e487b7100000000000000000000000000000000000000000000000000000000600052602160045260246000fd5b600381106108c7576108c6610887565b5b50565b60008190506108d8826108b6565b919050565b60006108e8826108ca565b9050919050565b6108f8816108dd565b82525050565b600060808201905061091360008301876107b8565b8181036020830152610925818661080d565b90506109346040830185610878565b61094160608301846108ef565b95945050505050565b61095381610866565b811461095e57600080fd5b50565b6000813590506109708161094a565b92915050565b6000806040838503121561098d5761098c6105bc565b5b600061099b85828601610776565b92505060206109ac85828601610961565b9150509250929050565b60006020820190506109cb60008301846107b8565b92915050565b7f4e487b7100000000000000000000000000000000000000000000000000000000600052601160045260246000fd5b6000610a0b82610755565b91507fffffffffffffffffffffffffffffffffffffffffffffffffffffffffffffffff8203610a3d57610a3c6109d1565b5b600182019050919050565b7f4e487b7100000000000000000000000000000000000000000000000000000000600052602260045260246000fd5b60006002820490506001821680610a8f57607f821691505b602082108103610aa257610aa1610a48565b5b50919050565b60008190508160005260206000209050919050565b60006020601f8301049050919050565b600082821b905092915050565b600060088302610b0a7fffffffffffffffffffffffffffffffffffffffffffffffffffffffffffffffff82610acd565b610b148683610acd565b95508019841693508086168417925050509392505050565b6000819050919050565b6000610b51610b4c610b4784610755565b610b2c565b610755565b9050919050565b6000819050919050565b610b6b83610b36565b610b7f610b7782610b58565b848454610ada565b825550505050565b600090565b610b94610b87565b610b9f818484610b62565b505050565b5b81811015610bc357610bb8600082610b8c565b600181019050610ba5565b5050565b601f821115610c0857610bd981610aa8565b610be284610abd565b81016020851015610bf1578190505b610c05610bfd85610abd565b830182610ba4565b50505b505050565b600082821c905092915050565b6000610c2b60001984600802610c0d565b1980831691505092915050565b6000610c448383610c1a565b9150826002028217905092915050565b610c5d826107c7565b67ffffffffffffffff811115610c7657610c756105e1565b5b610c808254610a77565b610c8b828285610bc7565b600060209050601f831160018114610cbe5760008415610cac578287015190505b610cb68582610c38565b865550610d1e565b601f198416610ccc86610aa8565b60005b82811015610cf457848901518255600182019150602085019450602081019050610ccf565b86831015610d115784890151610d0d601f891682610c1a565b8355505b6001600288020188555050505b505050505050565b6000606082019050610d3b60008301866107b8565b8181036020830152610d4d818561080d565b9050610d5c6040830184610878565b949350505050565b7f4f6e6c79206f776e65722063616e207368697000000000000000000000000000600082015250565b6000610d9a6013836107d2565b9150610da582610d64565b602082019050919050565b60006020820190508181036000830152610dc981610d8d565b9050919050565b7f50726f64756374206d7573742062652073686970706564206669727374000000600082015250565b6000610e06601d836107d2565b9150610e1182610dd0565b602082019050919050565b60006020820190508181036000830152610e3581610df9565b905091905056fea26469706673582212203440b34cb47dae816951324265987fedde6c2b56ce3db2917db5962d96fa9a0f64736f6c63430008140033",
  "linkReferences": {},
  "deployedLinkReferences": {}
}